:0400000002162C3286
:01000B0032C2
:0100130032BA
:01001B0032B2
:0100230032AA
:01002B0032A2
:03003300020F3089
:01003B003292
:030043000207C1F0
:10162C007581561204ADE58260030200467900E92B
:10163C004400601B7A0090167A780075A000E49341
:10164C00F2A308B8000205A0D9F4DAF275A0FF786D
:10165C0000E84400600C7900900000E4F0A3D8FC92
:05166C00D9FAF6D8FDDB
:0316770002004628
:100046001204C780FEC200C201C202C2037A088A35
:100056000B1AEB601AEA2423F87600EA242BF876CA
:1000660000EA2433F87600EA243BF8760080E022A2
:10007600AA82AB83ACF07D00E54330E7027D01E563
:100086004330E603430502E54330E403430504E554
:100096004330E503430508E54430E303430510E533
:1000A6004330E303430520E54430E103430540E5DF
:1000B6004430E20343058074072AFEE43BFF8C00CC
:1000C6008E828F8388F0ED1215FB7D00E54430E7C4
:1000D600027D03E54430E603430501E54430E403CD
:1000E60043050CE54430E50343050474042AFEE4A5
:1000F6003BFF8C008E828F8388F0ED1215FB8A827F
:100106008B838CF0E5451215FB74012AFDE43BFE5A
:100116008C0774FF6546F88D828E838FF01215FB6F
:1001260074022AFDE43BFE8C078D828E838FF0E5F8
:10013600471215FB74032AFDE43BFE8C0774FF652A
:1001460048F88D828E838FF01215FB74052AFDE424
:100156003BFE8C078D828E838FF0E5491215FB746A
:10016600062AFAE43BFB8A828B838CF0E54A121559
:10017600FBE55660028002D200E556B40102D201C8
:10018600E556B40202D202E556B40302D20322AA0D
:10019600827BFF7C017D017E08907FE5E0FFEA5FC0
:1001A60070070D8D041EBE00F08D04BE0002802275
:1001B6007D017E08907FE5E0FFEA5F60050D1EBECB
:1001C60000F2BE0002800BC3ED9C40047B0180025E
:1001D6007B008B8222AA82C204907FE47440F09056
:1001E6007FE3747BF07B20907FE5E0FCEA5C6008AF
:1001F6001BBB00F3D20480EFE4F544F5437B017C9E
:10020600007D00C3740F9D40352004328A82C002EF
:10021600C003C004C005120195AE82D005D004D03B
:1002260003D002EE20E70BBE010AEB4243EC424448
:100236008002D204ECCB25E0CB33FC0D80C575459E
:10024600007B807C007D00C374079D403B20043802
:100256008A82C002C003C004C005120195AE82D0D6
:1002660005D004D003D002EE20E711BE0110AF4541
:100276007800EB4207EC42008F458002D204ECC3C3
:1002860013CB13CBFC0D80BF7546007B807C007DB5
:1002960000C374079D403B2004388A82C002C00315
:1002A600C004C005120195AE82D005D004D003D09B
:1002B60002EE20E711BE0110AF467800EB4207ECD4
:1002C60042008F468002D204ECC313CB13CBFC0D45
:1002D60080BF7547007B807C007D00C374079D400E
:1002E6003B2004388A82C002C003C004C005120144
:1002F60095AE82D005D004D003D002EE20E711BE21
:100306000110AF477800EB4207EC42008F478002AE
:10031600D204ECC313CB13CBFC0D80BF7548007B16
:10032600807C007D00C374079D403B2004388A8290
:10033600C002C003C004C005120195AE82D005D02C
:1003460004D003D002EE20E711BE0110AF487800BA
:10035600EB4207EC42008F488002D204ECC313CB79
:1003660013CBFC0D80BF7549007B807C007D00C3EC
:1003760074079D403B2004388A82C002C003C00433
:10038600C005120195AE82D005D004D003D002EE8E
:1003960020E711BE0110AF497800EB4207EC42009E
:1003A6008F498002D204ECC313CB13CBFC0D80BF64
:1003B600754A007B807C007D00C374079D403B200E
:1003C60004388A82C002C003C004C005120195AE7B
:1003D60082D005D004D003D002EE20E711BE011072
:1003E600AE4A7F00EB4206EC42078E4A8002D204F8
:1003F600ECC313CB13CBFC0D80BF300417E4F544DC
:10040600F543754600754500754800754700754A01
:100416000075490022C2AF907FE47440F0907FE3FC
:10042600747BF0907FE50586907F9E0586789B79A4
:100436009875927F7FF012118FD2AF2212041B752E
:1004460082101201DB20000C75560090002375F017
:10045600001200767582201201DB20010C75560110
:1004660090002B75F0001200767582401201DB2099
:10047600020C75560290003375F0001200767582F4
:10048600801201DB2003B575560390003B75F00022
:1004960012007680A722907F9EE0FA540FF0907F9C
:1004A60098E0FA44F0F0227A02C3E49A50031A80E4
:1004B600F8907FD6E054FBF0E0FA4408F07582002D
:1004C600227A007B408A048B051ABAFF011BC3E41B
:1004D6009C74808DF063F08095F040E975D0081229
:1004E600050A75D000120F4B12049C538EF8907FAC
:1004F600D6E04402F0E054F7F0E0FA4404F01204C7
:040506004280FE220F
:06167100754CE8754D7F89
:10050A0012004BC205C206C207C208C209C20AC209
:10051A000BC20C754E7D75507D75527D75547D7577
:10052A004B0422C20DC20EC20FC210154BE54B601E
:10053A000122754B0420090D154FE54F6002800515
:10054A00D20D854E4F300007D20DC200854E4F3076
:10055A000D2B2005267A00BA08005015EA2480F5EA
:10056A0082E4347EF583EA2423F8860BEBF00A80D2
:10057A00E6D205907FB77408F08002D200200A0DF7
:10058A001551E55160028005D20E855051300107A0
:10059A00D20EC201855051300E262006217A00BAA9
:1005AA00080050108A8275837EEA242BF8860BEBAA
:1005BA00F00A80EBD206907FB97408F08002D2016B
:1005CA00200B0D1553E55360028005D20F85525357
:1005DA00300207D20FC202855253300F2B20072652
:1005EA007A00BA08005015EA2480F582E4347DF5D1
:1005FA0083EA2433F8860BEBF00A80E6D207907F71
:10060A00BB7408F08002D202200C0D1555E5556026
:10061A00028005D210855455300307D210C20385D3
:10062A0054553010262008217A00BA080050108A42
:10063A008275837DEA243BF8860BEBF00A80EBD2C5
:10064A0008907FBD7408F08002D203227403254CFF
:10065A00F582E4354DF583E0FABA01028019BA024F
:10066A00028033BA0302804DBA210302073DBA223F
:10067A000302076B0207BA907FB47402F07AA47B74
:10068A000F8B0A7B00907FD4EAF07AA47B0F7B0061
:10069A00907FD5EAF022907FB47402F07AB67B0F8D
:1006AA008B0A7B00907FD4EAF07AB67B0F7B0090AE
:1006BA007FD5EAF0227402254CF582E4354DF583A4
:1006CA00E0FABA04005065907FB47402F07402250F
:1006DA004CF582E4354DF583E0FA7B00EBCA25E060
:1006EA00CA33FBEA2479F582EB3411F583E493FAF1
:1006FA00740193FB8B0A7B00907FD4EAF074022585
:10070A004CF582E4354DF583E0FA7B00EBCA25E02F
:10071A00CA33FBEA2479F582EB3411F583E493FAC0
:10072A00740193FB7B00907FD5EAF022907FB4742A
:10073A0003F022907FB47402F07AB67B0F74122A07
:10074A00FAE43BFB8B0A7B00907FD4EAF07AB67B13
:10075A000F74122AFAE43BFB7B00907FD5EAF08003
:10076A00557404254CF582E4354DF583E0FAC374DB
:10077A00039A4034EA25E02A900786730207920218
:10078A000792020792020792907FB47402F07A23CA
:10079A007B108B0A7B00907FD4EAF07A237B107B54
:1007AA0000907FD5EAF0800E907FB47403F0800643
:1007BA00907FB47403F022C0E0C0F0C082C083C04E
:1007CA00D075D0085391EF907FABE0FA20E0030296
:1007DA000E91907FAB7401F07401254CF582E435DB
:1007EA004DF583E0FABA00028032BA01028063BA98
:1007FA000203020A2DBA0303020ACABA0603020C4A
:10080A0040BA0803020C46BA0903020C6FBA0A037B
:10081A00020C9CBA0B03020DB1020E8B854C828529
:10082A004D83E0FABA80028008BA81028003BA8254
:10083A0018907F00E4F0907F01F0907FB57402F089
:10084A00907FB47402F0020E91907FB47403F002A8
:10085A000E91854C82854D83E0FABA00028013BA64
:10086A0001028017BA0202801BBAA10302095102CF
:10087A000A24907FB47402F0020E91907FB474023D
:10088A00F0020E917404254CF582E4354DF583E0AF
:10089A00FABA0002801DBA80028029BA8102803623
:1008AA00BA8202804BBA83028060BA840302092E9C
:1008BA00020948907FD7E4F07420F0907FB4740264
:1008CA00F0020E91907FD77410F07430F0907FB4DC
:1008DA007402F0020E91907FB6E0FA54FEF0907F17
:1008EA00D77411F07431F0907FB47402F0020E9153
:1008FA00907FB8E0FA54FEF0907FD77412F0743209
:10090A00F0907FB47402F0020E91907FBAE0FA542C
:10091A00FEF0907FD77413F07433F0907FB47402B2
:10092A00F0020E91907FBCE0FA54FEF0907FD774EB
:10093A0014F07434F0907FB47402F0020E91907F38
:10094A00B47403F0020E917404254CF582E4354D1B
:10095A00F583E0FAC374039A5003020A1BEA25E0FE
:10096A002A90096F7302097B0209A30209CB0209C3
:10097A00F37A00BA080050108A8275837FEA24232A
:10098A00F8860BEBF00A80EBC200907FB57408F092
:10099A00907FB47402F0020E917A00BA08005010E7
:1009AA008A8275837FEA242BF8860BEBF00A80EBA8
:1009BA00C201907FB57408F0907FB47402F0020E01
:1009CA00917A00BA080050108A8275837FEA24332C
:1009DA00F8860BEBF00A80EBC202907FB57408F040
:1009EA00907FB47402F0020E917A00BA0800501097
:1009FA008A8275837FEA243BF8860BEBF00A80EB48
:100A0A00C203907FB57408F0907FB47402F0020EAE
:100A1A0091907FB47403F0020E91907FB47403F046
:100A2A00020E91854C82854D83E0FABAA1028003B9
:100A3A00020AC17404254CF582E4354DF583E0FAC7
:100A4A00C374039A4068EA25E02A900A5873020A96
:100A5A0064020A79020A8E020AA3907F00E54EF028
:100A6A00907FB57401F0907FB47402F0020E9190F9
:100A7A007F00E550F0907FB57401F0907FB4740266
:100A8A00F0020E91907F00E552F0907FB57401F06C
:100A9A00907FB47402F0020E91907F00E554F090BA
:100AAA007FB57401F0907FB47402F0020E91907FCA
:100ABA00B47403F0020E91907FB47403F0020E91A5
:100ACA00854C82854D83E0FABA00028013BA01028E
:100ADA008017BA0202801BBAA103020BF2020C377A
:100AEA00907FB47402F0020E91907FB47402F00207
:100AFA000E917404254CF582E4354DF583E0FABA7B
:100B0A000002801FBA8002803ABA81028051BA82FA
:100B1A0003020B89BA8303020BA9BA8403020BC925
:100B2A00020BE9907FB4E0FA4401F0907FD7E4F039
:100B3A007420F0907FC5E4F0907FB4E0FA4402F0AC
:100B4A00020E91907FB4E0FA4401F0907FD77410BE
:100B5A00F07430F0907FB4E0FA4402F0020E919003
:100B6A007FB67401F0907FD77411F07431F0907FE2
:100B7A00B6E0FA4402F0907FB47402F0020E91904B
:100B8A007FB87401F0907FD77412F07432F0907FBE
:100B9A00B8E0FA4402F0907FB47402F0020E919029
:100BAA007FBA7401F0907FD77413F07433F0907F9A
:100BBA00BAE0FA4402F0907FB47402F0020E919007
:100BCA007FBC7401F0907FD77414F07434F0907F76
:100BDA00BCE0FA4402F0907FB47402F0020E9190E5
:100BEA007FB47403F0020E917404254CF582E43547
:100BFA004DF583E0FAC374039A4029EA25E02A9066
:100C0A000C0D73020C19020C19020C19020C199022
:100C1A007F007401F0907FB57401F0907FB4740284
:100C2A00F0020E91907FB47403F0020E91907FB49B
:100C3A007403F0020E91120656020E91854C8285BB
:100C4A004D83E0FABA8015907F007401F0907FB569
:100C5A007401F0907FB47402F0020E91907FB47424
:100C6A0003F0020E91854C82854D83E0FABA0002A8
:100C7A008005BA21148009907FB47402F0020E91A3
:100C8A00907FB47403F0020E91907FB47403F00263
:100C9A000E91854C82854D83E0FABA2102801CBAF6
:100CAA0081028003020DA8907F00E4F0907FB57462
:100CBA0001F0907FB47402F0020E917404254CF591
:100CCA0082E4354DF583E0FAC374039A5003020DAA
:100CDA009FEA25E02A900CE373020CEF020D1B0237
:100CEA000D47020D737403254CF582E4354DF583E7
:100CFA00E0FA6012C2097403254CF582E4354DF519
:100D0A0083E0F54E8002D209907FB47402F0020E9D
:100D1A00917403254CF582E4354DF583E0FA6012AF
:100D2A00C20A7403254CF582E4354DF583E0F5508B
:100D3A008002D20A907FB47402F0020E91740325E5
:100D4A004CF582E4354DF583E0FA6012C20B740368
:100D5A00254CF582E4354DF583E0F5528002D20B3D
:100D6A00907FB47402F0020E917403254CF582E46C
:100D7A00354DF583E0FA6012C20C7403254CF582F6
:100D8A00E4354DF583E0F5548002D20C907FB474BB
:100D9A0002F0020E91907FB47403F0020E91907FDC
:100DAA00B47403F0020E91854C82854D83E0FABA41
:100DBA0001028009BA2103020E7B020E8374022506
:100DCA004CF582E4354DF583E0FABA00028003025D
:100DDA000E737404254CF582E4354DF583E0FAC3AD
:100DEA0074039A5003020E6BEA25E02A900DFA73F7
:100DFA00020E06020E20020E39020E52907FD7749E
:100E0A0011F07431F0907FB6E0FA4402F0907FB4AA
:100E1A007402F0020E91907FD77412F07432F0903F
:100E2A007FB8E0FA4402F0907FB47402F0805890E0
:100E3A007FD77413F07433F0907FBAE0FA4402F06B
:100E4A00907FB47402F0803F907FD77414F07434AA
:100E5A00F0907FBCE0FA4402F0907FB47402F08014
:100E6A0026907FB47403F0801E907FB47403F080E0
:100E7A0016907FB47402F0800E907FB47403F080F1
:100E8A0006907FB47403F0907FA9E0FA30E00690F0
:100E9A007FA97401F0907FAAE0FA30E00B907FAA54
:100EAA007401F0907FC5E4F0907FABE0FA30E4097A
:100EBA00907FAB7410F012050A907FABE0FA30E332
:100ECA0009907FAB7408F0438701907FA9E0FA305C
:100EDA00E108907FA97402F0C205907FA9E0FA3078
:100EEA00E208907FA97404F0C206907FA9E0FA3064
:100EFA00E308907FA97408F0C207907FA9E0FA304E
:100F0A00E408907FA97410F0C208907FABE0FA3031
:100F1A00E109907FAB7402F012052DD0D0D083D0B6
:100F2A0082D0F0D0E032C0E0C0F0C082C083C0D02E
:100F3A0075D01053D8EFD0D0D083D082D0F0D0E083
:100F4A0032C2AF907FA17401F0907FAFE4F0907F3E
:100F5A00AB74FFF0907FAE741BF0907FA9741FF002
:100F6A00907FAC741FF0907FAA7401F0907FAD74EB
:100F7A0001F0907FB6E4F0907FB8F0907FBAF090DD
:100F8A007FBCF0907FDE741FF0907FDF7401F0D297
:100F9A00E853D8EF43D820D2AF2212011001000043
:100FAA000040CD0706C000010102000109026D00E0
:100FBA000401008032090400000103000003092132
:100FCA00000100012288000705810308000A0904BC
:100FDA000100010300000309210001000122880029
:100FEA000705820308000A0904020001030000033E
:100FFA000921000100012288000705830308000A6D
:10100A000904030001030000030921000100012271
:10101A0088000705840308000A05010905A10109DA
:10102A0001A102050A0901A10005010930093115CA
:10103A000025FF950275088102C0050A0902A10070
:10104A00050109300931150025FF9502750881024D
:10105A00C0050A0903A10005010930093115FF2558
:10106A0001950275028102C0C095047501810305CC
:10107A00010936A102050A0901150025FF95017526
:10108A000881020902150025FF950175088102C031
:10109A00050919012908150025019508750181021C
:1010AA00C0040300002203410043004D0045002014
:1010BA000055005300420020005700690064006791
:1010CA00006500740073002203470061006D00652B
:1010DA000063007500620065002000500061006432
:1010EA000020004800490044008603470061006D63
:1010FA000065006300750062006500200050006111
:10110A0000640020004800490044002000440072A6
:10111A000069007600650072002C00200046006914
:10112A000072006D007700610072006500200043C4
:10113A00006F00700079007200690067006800742F
:10114A00002000280063002900200032003000300F
:10115A000034002000410072006E0069006D00201A
:10116A00004C00610065007500670065007200AB05
:10117A0010AF10D110F310000000000000000000B2
:10118A000000000022EFF4FE0586E04FF0E35EF374
:10119A004F121181F35E000000F34F000000F35E6E
:1011AA00121181F34F121181F35E000000F34F1206
:1011BA001181F35E000000F34F121181F35E00000B
:1011CA0000F34F121181F35E000000F34F121181F8
:1011DA00F35E000000F34F121181F35E000000F38A
:1011EA004F121181F35E000000F34F121181F35E7A
:1011FA00000000F34F121181F35E000000F34F125A
:10120A001181F35E000000F34F121181F35E0000BA
:10121A0000F34F121181F35E000000F34F0000004B
:10122A00F35E121181F34F000000F35E121181F395
:10123A004F121181F35E000000F34F121181F35E29
:10124A00000000F34F121181F35E000000F34F1209
:10125A001181F35E000000F34F121181F35E00006A
:10126A0000F34F121181F35E000000F34F000000FB
:10127A00F35E121181F34F121181F35E000000F345
:10128A004F000000F3E05EF00586E2F0E2F0E2F0E3
:10129A00E2F0E2F0E2F0E2F0E2F0E2F0E2F0E2F0B4
:1012AA00E2F0E2F0E2F0E2F0E2F0E2F0E2F0E2F0A4
:1012BA00E2F0E2F0E2F0E2F0E2F0E2F0E2F0E2F094
:1012CA00E2F0E2F0E2F0E2F0E2F0E2F0E2F0E2F084
:1015EA00E2F0E2F0E2F0E2F0E2F0EF7A10F0DAFD97
:1015FA0022C0E0E5F0601114601914600714601845
:10160A0014146004D0E08019D0E0C000A882F6D09B
:10161A0000800ED0E0F08009D0E0C000A882F2D0AD
:02162A0000229C
:00000001FF
