:04000000020B3D3280
:01000B0032C2
:0100130032BA
:01001B0032B2
:0300230002068052
:03002B000207D0F9
:01003300329A
:01003B003292
:030043000201AE09
:100B3D0075813812092FE58260030200467900E9BC
:100B4D004400601B7A00900BAB780075A000E49315
:100B5D00F2A308B8000205A0D9F4DAF275A0FF7867
:100B6D0000E84400600C7900900000E4F0A3D8FC8C
:100B7D00D9FAF6D8FD7AEF7B098A2F8B307AF37B81
:100B8D00098A318B327A157B0A8A338B347A377B1B
:0E0B9D000A8A358B367537E875387F020046B8
:1000460012093F80FE752CFFC200C201C202752D47
:100056007DC2032274032537F582E43538F583E043
:10006600FABA01028019BA02028035BA0302805137
:10007600BA2103020129BA220302016F0201A790E5
:100086007FB47402F07A7C7B098B027B00907FD46C
:10009600EAF07A7C7B097B00907FD5EAF00201AD1D
:1000A600907FB47402F07A8E7B098B027B00907F7E
:1000B600D4EAF07A8E7B097B00907FD5EAF00201C4
:1000C600AD74022537F582E43538F583E0FABA04D3
:1000D600005047907FB47402F074022537F582E42D
:1000E6003538F583E025E0FA242FF88602088603E2
:1000F6008B027B00907FD4EAF074022537F582E408
:100106003538F583E025E0FA242FF88602088603C1
:100116007B00907FD5EAF00201AD907FB47403F0C6
:100126000201AD74042537F582E43538F583E0FA2B
:10013600BA002E907FB47402F07A8E7B0974122A6C
:10014600FAE43BFB8B027B00907FD4EAF07A8E7B4D
:100156000974122AFAE43BFB7B00907FD5EAF08013
:1001660046907FB47403F0803E74042537F582E42C
:100176003538F583E0FABA0020907FB47402F07A3D
:10018600B07B098B027B00907FD4EAF07AB07B09C2
:100196007B00907FD5EAF0800E907FB47403F080E8
:1001A60006907FB47403F022C0E0C0F0C082C08322
:1001B600C002C003C004C005C006C007C000C0011D
:1001C600C0D075D008D310AF01C3C0D05391EF9003
:1001D6007FABE0FA20E0030205CA907FAB7401F022
:1001E60074012537F582E43538F583E0FABA000262
:1001F6008032BA01028063BA0203020346BA0303DD
:10020600020388BA0603020484BA0803020490BAF9
:1002160009030204B9BA0A030204E7BA0B0302058A
:10022600590205C4853782853883E0FABA80028090
:1002360008BA81028003BA8218907F00E4F0907FAA
:1002460001F0907FB57402F0907FB47402F002055D
:10025600CA907FB47403F00205CA85378285388355
:10026600E0FABA00028013BA01028017BA020280CD
:100276001BBAA1030202FC02033D907FB47402F094
:100286000205CA907FB47402F00205CA74042537C9
:10029600F582E43538F583E0FABA00028012BA80B6
:1002A60002801EBA8102802BBA820280400205CAF1
:1002B600907FD7E4F07420F0907FB47402F00205CA
:1002C600CA907FD77410F07430F0907FB47402F047
:1002D6000205CA907FB6E0FA54FEF0907FD77411FB
:1002E600F07431F0907FB47402F00205CA907FB4C6
:1002F6007403F00205CA74042537F582E43538F52F
:1003060083E0FABA00287A078A0B1AEB600F8A8212
:1003160075837FEA2424F8860BEBF080EBC200900D
:100326007FB57408F0907FB47402F00205CA907F1E
:10033600B47403F00205CA907FB47403F00205CAD0
:10034600853782853883E0FABAA12E74042537F5FD
:1003560082E43538F583E0FABA0015907F00E52D82
:10036600F0907FB57401F0907FB47402F00205CA74
:10037600907FB47403F00205CA907FB47403F00250
:1003860005CA853782853883E0FABA00028013BA37
:1003960001028017BA0202801BBAA10302044D02B1
:1003A600047B907FB47402F00205CA907FB4740295
:1003B600F00205CA74042537F582E43538F583E082
:1003C600FABA00028013BA8002802EBA81028045F2
:1003D600BA820302043B020444907FB4E0FA44016B
:1003E600F0907FD7E4F07420F0907FC5E4F0907F22
:1003F600B4E0FA4402F00205CA907FB4E0FA440180
:10040600F0907FD77410F07430F0907FB4E0FA4427
:1004160002F00205CA907FB67401F0907FD774117E
:10042600F07431F0907FB6E0FA4402F0907FB47435
:1004360002F00205CA907FB47403F00205CA907FE9
:10044600B47403F00205CA74042537F582E435381E
:10045600F583E0FABA0015907F007401F0907FB53D
:100466007401F0907FB47402F00205CA907FB474F0
:1004760003F00205CA907FB47403F00205CA75D072
:100486000012005A75D0080205CA8537828538835E
:10049600E0FABA8015907F007401F0907FB5740180
:1004A600F0907FB47402F00205CA907FB47403F032
:1004B6000205CA853782853883E0FABA00028005CC
:1004C600BA21158009907FB47402F00205CAD201E0
:1004D600907FC5E4F00205CA907FB47403F002056C
:1004E600CA853782853883E0FABA21028017BA8135
:1004F60059907F00E4F0907FB57401F0907FB4745A
:1005060002F00205CA74042537F582E43538F5830E
:10051600E0FABA002C74032537F582E43538F58302
:10052600E0FA6012C20274032537F582E43538F525
:1005360083E0F52D8002D202907FB47402F00205AA
:10054600CA907FB47403F00205CA907FB47403F0B6
:100556000205CA853782853883E0FABA010280052A
:10056600BA2153804974022537F582E43538F5837C
:10057600E0FABA003174042537F582E43538F5839C
:10058600E0FABA0019907FB6E0FA4402F0907FD7FD
:100596007411F07431F0907FB47402F08026907F6D
:1005A600B47403F0801E907FB47403F08016907FBD
:1005B600B47402F0800E907FB47403F08006907FCE
:1005C600B47403F0907FA9E0FA30E006907FA97436
:1005D60001F0907FA9E0FA30E108907FA97402F05B
:1005E600C203907FAAE0FA30E05A907FAA7401F025
:1005F60030014C907EC0E0FA75990E74025AFB7C6D
:1006060000ECCB25E0CB33CB25E0CB33FC74045A8E
:10061600FD7E00ED420BEE420C74085AFD030354B6
:100626003FFD7E00ED420BEE420C530A017D00EACF
:10063600420BED420C8B2CC201907FB47402F090F9
:100646007FC5E4F0907FABE0FA30E40F907FAB74A7
:1006560010F075D00012004B75D008D0D092AFD0F4
:10066600D0D001D000D007D006D005D004D003D01A
:1006760002D083D082D0F0D0E032C0E0C0F0C08299
:10068600C083C0D075D010D310AF01C3C0D020989E
:10069600030207B1AA99C298E52230E7058A220229
:1006A60007C1E523B4FF058A230207C1BA7F02808A
:1006B60014BAFE028009BAFF217522FF0207B1753E
:1006C60023FF0207B17B088B141BEC6008EB242484
:1006D600F8760080F2D2000207B1C204747F5AFB9A
:1006E600BB0D02803CBB1302802BBB31028046BB94
:1006F60048028035BB4C028014BB63028013BB6E7C
:1007060002801ABB78028011BB7A3680187B018082
:10071600347B0280307B04802C7B0880287B208001
:10072600247B4080207B80801C7B0474805A440993
:10073600FAD20480107B0474805A440BFAD20480E7
:10074600047B00D204EB6016EA30E70BEBF4FC55B1
:1007560024F524D2008007EB4524F524D20030048A
:100766004AEA30E72453127FEA900ABD93FA7B07E0
:10077600C374019B500FEB2424F88614ECB51202C7
:1007860076001B80EBD200802253127FEA900ABDCE
:1007960093FA7B02BB08005010EB2424F88614EC75
:1007A6007004A61280030B80EBD200109902800B16
:1007B600E52C20E706852C99752CFFD0D092AFD07A
:1007C600D0D083D082D0F0D0E032C0E0C0F0C0827A
:1007D600C083C0D075D018D310AF01C3C0D010CF1E
:1007E6000280467A0020020D152EE52E6002800555
:1007F6007A01852D2E3000077A01C200852D2EEA5A
:1008060060272003247A088A1B1AEB6014EA2480E6
:10081600F582E4347EF583EA2424F8861BEBF08027
:10082600E6D203907FB77408F0D0D092AFD0D0D084
:1008360083D082D0F0D0E032C2AF907FAFE4F090A8
:100846007FAB74FFF0907FAE7411F0907FA97407B0
:10085600F0907FAC7401F0E0FA907FAC74024AF03D
:10086600907FAA7401F0907FAD7401F0907FB6E49A
:10087600F0907FC6F0907FB8F0907FC8F0907FDE52
:100886007403F0907FDF7401F0D2E8D2AF22907F3C
:1008960097E4F0907F9D7402F0907F98E4F0907F4B
:1008A6009E7484F0907F957403F0907F947404F0A6
:1008B600758920538EEF758DCC75870075985075A8
:1008C600C800D2ACD28E227523007A088A031AEBAE
:1008D6006014EA2480F582E4347EF583E4F0EA24A9
:1008E60024F8760080E67522FE759901E52220E758
:1008F600FB852221752200E521B404137523FE75BC
:10090600990FE52320E7FBE52330E5037521052252
:10091600852D2E75C80075CDC175CBC175CC80757A
:10092600CA80D2ADC2CFD2CA22907FD6E054FBF0A5
:10093600E0FA4408F0758200227A007B408A048B34
:10094600051ABAFF011BC3E49C74808DF063F08026
:1009560095F040E912004B12083E1208941208CD99
:10096600120916907FD6E04402F0E054F7F0E0FA60
:100976004404F080FE221201000100000040CD0672
:1009860001C0540101020001090222000101008098
:10099600640904000001030101030921000121018A
:1009A600223F000705810308000A05010906A10187
:1009B600050719E029E7150025017501950881024B
:1009C6009501750881019505750105081901290527
:1009D6009102950175039101950675081500256527
:1009E6000507190029658100C004030000220341A0
:1009F6000043004D00450020007500730062002092
:100A060000770069006400670065007400730022C7
:100A160003530075006E0020006B006500790062CC
:100A2600006F006100720064002000480049004425
:100A3600008603530075006E0020004B00650079A8
:100A46000062006F006100720064002000480049E7
:100A560000440020004400720069007600650072C0
:100A6600002C0020004600690072006D00770061CE
:100A76000072006500200043006F0070007900726C
:100A860000690067006800740020002800630029E0
:100A96000020003200300030003200200041007299
:100AA600006E0069006D0020004C00610065007555
:100AB6000067006500720000788179803A3B433C0C
:100AC600443D453EE43F00404142E25248464750DD
:100AD600747A514F291E1F20212223242526272DD3
:100AE6002E352A490054550000637C4A2B141A08F7
:100AF60015171C180C12132F304C655F60615600D9
:100B06007D4DFFE0041607090A0B0D0E0F33343135
:100B160028585C5D5E627E4B7B53E11D1B06190502
:100B26001110363738E500595A5BFFFFFF7539E378
:070B36002CE74EFF57000001
:00000001FF
