:04000000020F7B323E
:01000B0032C2
:0100130032BA
:01001B0032B2
:03002300020830A0
:03002B00020AC006
:01003300329A
:03003B0002098037
:0300430002022A8C
:100F7B00758146120C8FE58260030200467900E909
:100F8B004400601B7A00900FF1780075A000E49389
:100F9B00F2A308B8000205A0D9F4DAF275A0FF7825
:100FAB0000E84400600C7900900000E4F0A3D8FC4A
:100FBB00D9FAF6D8FD7A9D7B0D8A3B8B3C7AA17BC7
:100FCB000D8A3D8B3E7AC37B0D8A3F8B407AF57B36
:100FDB000D8A418B427A7B7B0E8A438B447545E8A5
:060FEB0075467F0200467E
:10004600120C9F80FE752DFFC200C201C2027537D9
:100056007DC203C204C205C206753905C2072274F1
:10006600032545F582E43546F583E0FABA010280B8
:1000760019BA02028035BA03028051BA210302017D
:1000860034BA22030201BB020223907FB47402F049
:100096007ADF7B0C8B027B00907FD4EAF07ADF7BE1
:1000A6000C7B00907FD5EAF0020229907FB474029F
:1000B600F07AF17B0C8B027B00907FD4EAF07AF128
:1000C6007B0C7B00907FD5EAF0020229740225455D
:1000D600F582E43546F583E0FABA05005047907F8D
:1000E600B47402F074022545F582E43546F583E0E2
:1000F60025E0FA243BF886020886038B027B0090F3
:100106007FD4EAF074022545F582E43546F583E0AE
:1001160025E0FA243BF886020886037B00907FD50B
:10012600EAF0020229907FB47403F00202297404F3
:100136002545F582E43546F583E0FABA002F907F2F
:10014600B47402F07AF17B0C74122AFAE43BFB8B4E
:10015600027B00907FD4EAF07AF17B0C74122AFAC3
:10016600E43BFB7B00907FD5EAF00202297404256C
:1001760045F582E43546F583E0FABA012F907FB45F
:100186007402F07AF17B0C74222AFAE43BFB8B02B0
:100196007B00907FD4EAF07AF17B0C74222AFAE491
:1001A6003BFB7B00907FD5EAF0020229907FB47476
:1001B60003F002022974042545F582E43546F583E9
:1001C600E0FABA0020907FB47402F07A2C7B0D8B93
:1001D600027B00907FD4EAF07A2C7B0D7B00907F27
:1001E600D5EAF0803E74042545F582E43546F5836C
:1001F600E0FABA0120907FB47402F07A6B7B0D8B23
:10020600027B00907FD4EAF07A6B7B0D7B00907FB7
:10021600D5EAF0800E907FB47403F08006907FB428
:100226007403F022C0E0C0F0C082C083C002C003E5
:10023600C004C005C006C007C000C001C0D075D04C
:1002460008D310AF01C3C0D05391EF907FABE0FA53
:1002560020E00302076A907FAB7401F07401254524
:10026600F582E43546F583E0FABA00028032BA0137
:10027600028063BA020302040BBA0303020472BAD1
:100286000603020597BA08030205A3BA0903020585
:10029600CCBA0A030205FABA0B030206AD020764DA
:1002A600854582854683E0FABA80028008BA8102D3
:1002B6008003BA8218907F00E4F0907F01F0907F6F
:1002C600B57402F0907FB47402F002076A907FB4AE
:1002D6007403F002076A854582854683E0FABA0010
:1002E600028013BA01028017BA0202801BBAA10368
:1002F600020389020402907FB47402F002076A9036
:100306007FB47402F002076A74042545F582E43569
:1003160046F583E0FABA00028012BA8002801EBA5D
:100326008102802BBA8202804002076A907FD7E45E
:10033600F07420F0907FB47402F002076A907FD7C1
:100346007410F07430F0907FB47402F002076A9073
:100356007FB6E0FA54FEF0907FD77411F07431F056
:10036600907FB47402F002076A907FB8E0FA54FEF8
:10037600F0907FD77412F07432F0907FB47402F06C
:1003860002076A74042545F582E43546F583E0FAEA
:10039600BA00287A078A0B1AEB600F8A8275837F68
:1003A600EA2425F8860BEBF080EBC200907FB5744B
:1003B60008F0907FB47402F002076A74042545F5CC
:1003C60082E43546F583E0FABA01287A078A0B1AE1
:1003D600EB600F8A8275837FEA242EF8860BEBF09A
:1003E60080EBC204907FB57408F0907FB47402F07D
:1003F60002076A907FB47403F002076A907FB474B0
:1004060003F002076A854582854683E0FABAA1535E
:1004160074042545F582E43546F583E0FABA0015FD
:10042600907F00E537F0907FB57401F0907FB4744B
:1004360002F002076A74042545F582E43546F58321
:10044600E0FABA0115907F00E539F0907FB57401A6
:10045600F0907FB47402F002076A907FB47403F0E0
:1004660002076A907FB47403F002076A85458285A5
:100476004683E0FABA00028013BA01028017BA0274
:1004860002801BBAA10302054E02058E907FB4744A
:1004960002F002076A907FB47402F002076A7404DD
:1004A6002545F582E43546F583E0FABA0002801365
:1004B600BA8002802EBA81028045BA8203020525DF
:1004C600020545907FB4E0FA4401F0907FD7E4F04E
:1004D6007420F0907FC5E4F0907FB4E0FA4402F017
:1004E60002076A907FB4E0FA4401F0907FD7741057
:1004F600F07430F0907FB4E0FA4402F002076A909C
:100506007FB67401F0907FD77411F07431F0907F4C
:10051600B6E0FA4402F0907FB47402F002076A90E3
:100526007FB87401F0907FD77412F07432F0907F28
:10053600B8E0FA4402F0907FB47402F002076A90C1
:100546007FB47403F002076A74042545F582E43526
:1005560046F583E0FABA0002801074042545F58258
:10056600E43546F583E0FABA0115907F007401F090
:10057600907FB57401F0907FB47402F002076A9020
:100586007FB47403F002076A907FB47403F0020725
:100596006A75D00012006575D00802076A85458223
:1005A600854683E0FABA8015907F007401F0907F4B
:1005B600B57401F0907FB47402F002076A907FB4BC
:1005C6007403F002076A854582854683E0FABA001D
:1005D600028005BA21158009907FB47402F00207E3
:1005E6006AD201907FC5E4F002076A907FB4740373
:1005F600F002076A854582854683E0FABA210280C1
:100606001CBA810280030206A4907F00E4F0907F6A
:10061600B57401F0907FB47402F002076A74042581
:1006260045F582E43546F583E0FABA002C740325D5
:1006360045F582E43546F583E0FA6012C20274039A
:100646002545F582E43546F583E0F5378002D2028A
:10065600907FB47402F002076A74042545F582E4BB
:100666003546F583E0FABA012C74032545F582E494
:100676003546F583E0FA6012C20674032545F58215
:10068600E43546F583E0F5398002D206907FB474EE
:1006960002F002076A907FB47403F002076A907F43
:1006A600B47403F002076A854582854683E0FABA88
:1006B60001028009BA210302075402075C7402256D
:1006C60045F582E43546F583E0FABA000280030276
:1006D600074C74042545F582E43546F583E0FABAFD
:1006E6000002801074042545F582E43546F583E062
:1006F600FABA014A74042545F582E43546F583E0E5
:10070600FABA0011907FB6E0FA4402F0907FD774EF
:1007160011F07431F074042545F582E43546F5830D
:10072600E0FABA0111907FB8E0FA4402F0907FD760
:100736007412F07432F0907FB47402F08026907FC9
:10074600B47403F0801E907FB47403F08016907F1B
:10075600B47402F0800E907FB47403F08006907F2C
:10076600B47403F0907FA9E0FA30E006907FA97494
:1007760001F0907FA9E0FA30E108907FA97402F0B9
:10078600C203907FA9E0FA30E208907FA97404F0D2
:10079600C207907FAAE0FA30E05A907FAA7401F06F
:1007A60030014C907EC0E0FA75990E74025AFB7CBB
:1007B60000ECCB25E0CB33CB25E0CB33FC74045ADD
:1007C600FD7E00ED420BEE420C74085AFD03035405
:1007D6003FFD7E00ED420BEE420C530A017D00EA1E
:1007E600420BED420C8B2DC201907FB47402F09047
:1007F6007FC5E4F0907FABE0FA30E40F907FAB74F6
:1008060010F075D00012004B75D008D0D092AFD042
:10081600D0D001D000D007D006D005D004D003D068
:1008260002D083D082D0F0D0E032C0E0C0F0C082E7
:10083600C083C0D075D010D310AF01C3C0D02098EC
:1008460003020961AA99C298E52330E7058A2302C3
:100856000971E524B4FF058A24020971BA7F028072
:1008660014BAFE028009BAFF217523FF02096175D9
:1008760024FF0209617B088B141BEC6008EB24251E
:10088600F8760080F2D200020961C208747F5AFB32
:10089600BB0D02803CBB1302802BBB31028046BBE2
:1008A60048028035BB4C028014BB63028013BB6ECA
:1008B60002801ABB78028011BB7A3680187B0180D1
:1008C600347B0280307B04802C7B0880287B208050
:1008D600247B4080207B80801C7B0474805A4409E2
:1008E600FAD20880107B0474805A440BFAD208802E
:1008F600047B00D208EB6016EA30E70BEBF4FC55FC
:1009060025F525D2008007EB4525F525D2003008D0
:100916004AEA30E72453127FEA900EFB93FA7B07EC
:10092600C374019B500FEB2425F88614ECB5120214
:1009360076001B80EBD200802253127FEA900EFBDA
:1009460093FA7B02BB08005010EB2425F88614ECC2
:100956007004A61280030B80EBD200109902800B64
:10096600E52D20E706852D99752DFFD0D092AFD0C5
:10097600D0D083D082D0F0D0E032C0E0C0F0C082C8
:10098600C083C0D075D010D310AF01C3C0D020C073
:1009960003020AB1AAC1C2C0E536B46406BA870327
:1009A6007536008A13C3740495365003020AAEE501
:1009B6003625E025369009BF730209CE0209FE02EC
:1009C6000A05020A10020A5F74F05AFCBC80028013
:1009D60003020AB1EAF4FC74075CFA7C00EA30E030
:1009E600027C02EA30E103431404EA30E2034314D2
:1009F600018C2E0536020AB18A2F0536020AB1C3CA
:100A0600E49AFA8A300536020AB1AA2FE52F339501
:100A1600E0FC8B15EB3395E0FEED2AFAEE3CFCC3C9
:100A2600747F9A74808CF063F08095F050067D7F19
:100A36007E008019C3EA9481EC6480947F50067F1F
:100A46008178FF80048A178C108F1588168D128E78
:100A5600148A158D2F05368052AD30E5303395E07A
:100A6600FEEB3395E0FFEDC39BFAEE9FFCC3747F6C
:100A76009A74808CF063F08095F050067B7F7D0041
:100A86008019C3EA9481EC6480947F50067E817F4E
:100A9600FF80048A168C178E138F158B128D148A7D
:100AA60030753600D2048003753664D0D092AFD04C
:100AB600D0D083D082D0F0D0E032C0E0C0F0C08287
:100AC600C083C0D075D018D310AF01C3C0D010CF2B
:100AD60003020B617A0020020D1538E538600280AA
:100AE600057A018537383000077A01C20085373824
:100AF600EA60272003247A088A1B1AEB6014EA248A
:100B060080F582E4347EF583EA2425F8861BEBF033
:100B160080E6D203907FB77408F07A0020060D15A0
:100B26003AE53A600280057A0185393A3004077A57
:100B360001C20485393AEA602220071F7A088A1B17
:100B46001AEB600F8A8275837EEA242EF8861BEBE9
:100B5600F080EBD207907FB97408F0D0D092AFD076
:100B6600D0D083D082D0F0D0E032C2AF907FAFE455
:100B7600F0907FAB74FFF0907FAE7411F0907FA978
:100B86007407F0907FAC7401F0E0FA907FAC7402C9
:100B96004AF0907FACE0FA4404F0907FAA7401F02A
:100BA600907FAD7401F0907FB6E4F0907FC6F09030
:100BB6007FB8F0907FC8F0907FDE7407F0907FDFFB
:100BC6007401F0D2E8D2AF22907F97E4F0907F9D37
:100BD6007402F0907F98E4F0907F9E7484F0907F8A
:100BE600957403F0907F947404F0758920538EEF0A
:100BF600758DCC75870075985075C800D2AC75C0D8
:100C06005075C800D2AED28E227524007A088A03A7
:100C16001AEB6014EA2480F582E4347EF583E4F06E
:100C2600EA2425F8760080E67523FE759901E5230A
:100C360020E7FB852322752300E522B404137524DF
:100C4600FE75990FE52420E7FBE52430E5037522C0
:100C560005227536007A088A031AEB600F8A8275B8
:100C6600837EE4F0EA242EF8760080EB228537387E
:100C760085393A75C80075CDC175CBC175CC8075FF
:100C8600CA80D2ADC2CFD2CA22907FD6E054FBF042
:100C9600E0FA4408F0758200227A007B408A048BD1
:100CA600051ABAFF011BC3E49C74808DF063F080C3
:100CB60095F040E912004B120B70120BCE120C0F7E
:100CC600120C58120C73907FD6E04402F0E054F7F1
:100CD600F0E0FA4404F080FE221201000100000058
:100CE60040CD0601C054010102000109023B000289
:100CF60001008064090400000103010103092100C9
:100D0600012101223F000705810308000A090401A9
:100D1600000103010204092100010001223200073B
:100D260005820308000A05010906A101050719E065
:100D360029E71500250175019508810295017508B9
:100D4600810195057501050819012905910295018D
:100D560075039101950675081500256505071900A7
:100D660029658100C005010902A1010901A10095BB
:100D7600037501050919012903150025018102954D
:100D860001750581017508950205010930093115BE
:100D960081257F8106C0C004030000220341004371
:100DA600004D0045002000750073006200200077AA
:100DB6000069006400670065007400730032035325
:100DC6000075006E0020006B006500790062006F00
:100DD600006100720064002000260020006D006F94
:100DE6000075007300650020004800490044008635
:100DF60003530075006E0020004B00650079006209
:100E0600006F006100720064002000480049004441
:100E16000020004400720069007600650072002C14
:100E26000020004600690072006D007700610072C4
:100E3600006500200043006F0070007900720069B1
:100E46000067006800740020002800630029002065
:100E56000032003000300032002000410072006E87
:100E66000069006D0020004C006100650075006798
:100E760000650072008003530075006E0020004D6F
:100E8600006F0075007300650020004800490044AB
:100E96000020004400720069007600650072002C94
:100EA6000020004600690072006D00770061007244
:100EB600006500200043006F007000790072006931
:100EC60000670068007400200028006300290020E5
:100ED6000032003000300032002000410072006E07
:100EE6000069006D0020004C006100650075006718
:100EF600006500720000788179803A3B433C443DAE
:100F0600453EE43F00404142E25248464750747A2B
:100F1600514F291E1F20212223242526272D2E3519
:100F26002A490054550000637C4A2B141A081517E9
:100F36001C180C12132F304C655F606156007D4DF6
:100F4600FFE0041607090A0B0D0E0F33343128583B
:100F56005C5D5E627E4B7B53E11D1B06190511101D
:100F6600363738E500595A5BFFFFFF7539E32CE742
:050F76004EFF570000D2
:00000001FF
