:04000000020BFB32C2
:01000B0032C2
:0100130032BA
:01001B0032B2
:0100230032AA
:01002B0032A2
:030033000209F5CA
:01003B003292
:0300430002048232
:100BFB0075813C120233E58260030200467900E9FD
:100C0B004400601B7A00900C49780075A000E493B7
:100C1B00F2A308B8000205A0D9F4DAF275A0FF78A8
:100C2B0000E84400600C7900900000E4F0A3D8FCCD
:050C3B00D9FAF6D8FD16
:030C460002004663
:1000460012024380FEC200C20175210075220075AE
:100056002300E4F524F526F525E4F528F52722AA5C
:1000660082AB83ACF0120BCFFAA3120BCFFB753C1D
:10007600007D00AE35AF36A8378E828F8388F012AA
:100086000BCFF9A3120BCFFCEAB50107EBB50403BE
:100096000201308E828F8388F0EA120B9EA3EB1248
:1000A6000B9EEA30E3027D01EB30E303430502EAEF
:1000B60030E203430504EB30E203430508EB30E18D
:1000C60003430510EB30E003430520EA30E1034328
:1000D6000540EA30E00343058074012538FCE43529
:1000E60039FEAF3A8C828E838FF0ED120B9EEA308A
:1000F600E503753C03EA30E403433C01EA30E603DA
:10010600433C04EA30E703433C0CAA38AB39AC3A2B
:100116008A828B838CF0E53C120B9EE53B60028065
:1001260002D200E53BB40102D20122758AF4758C35
:10013600FF22D28C308DFDC28CC28D12013122126B
:100146000131907F96E0FA4440F0907F96E0FA44C1
:1001560080F0120138120138907F96E0FA547FF051
:10016600E4F52CF52BE4F52AF5297A00BA0C0050B3
:1001760045120138907F96E0FB54BFF0E52AC52969
:1001860025E0C52933F52AE52CC52B25E0C52B33FB
:10019600F52C907F99E0FB20E503432901907F9998
:1001A600E0FB20E403432B01120138907F96E0FB2D
:1001B6004440F00A80B675352575360075370075EA
:1001C6003821753900753A00753B0090002975F0A5
:1001D60000120065753527753600753700753823AA
:1001E600753900753A00753B0190002B75F00012C9
:1001F600006502014822907F96E0FA4440F0907F25
:100206009CE0FA4440F0907F96E0FA4480F0907FBC
:100216009CE04480F0E0FA54DFF0907F9CE0FA54D2
:10022600EFF022C28CC28DC2A975890122907FD6B9
:10023600E054FBF0E0FA4408F0758200227A007B75
:10024600408A048B051ABAFF011BC3E49C74808D97
:10025600F063F08095F040E9120280120A10120253
:10026600291201FC907FD6E04402F0E054F7F0E05A
:0A027600FA4404F012014580FE2254
:060C4000752FE875307FFE
:1002800012004BC202C20375317D75337DE4F52E39
:10029000752D0422C206C207152D74FFB52D021557
:1002A0002EE52D7004E52E600122E4F52E752D0457
:1002B00020040D1532E53260028005D20685313208
:1002C000300007D206C20085313230061B200216EC
:1002D000907E80E521F0907E81E522F0D202907F31
:1002E000B77402F08002D20020050D1534E53460A9
:1002F000028005D207853334300107D207C2018559
:10030000333430071B200316907E00E523F0907EE7
:1003100001E524F0D203907FB97402F08002D2018B
:10032000227403252FF582E43530F583E0FABA0113
:10033000028019BA02028035BA03028051BA210341
:10034000020410BA220302043E02047B907FB474BC
:1003500002F07A5B7B0A8B027B00907FD4EAF07A12
:100360005B7B0A7B00907FD5EAF0020481907FB42A
:100370007402F07A6D7B0A8B027B00907FD4EAF0E6
:100380007A6D7B0A7B00907FD5EAF00204817402CB
:10039000252FF582E43530F583E0FABA0400506782
:1003A000907FB47402F07402252FF582E43530F5A5
:1003B00083E0FA7B00EBCA25E0CA33FBEA2496F51A
:1003C00082EB340BF583E493FA740193FB8B027B8D
:1003D00000907FD4EAF07402252FF582E43530F5E1
:1003E00083E0FA7B00EBCA25E0CA33FBEA2496F5EA
:1003F00082EB340BF583E493FA740193FB7B00905A
:100400007FD5EAF0020481907FB47403F002048186
:10041000907FB47402F07A6D7B0A74122AFAE43B7E
:10042000FB8B027B00907FD4EAF07A6D7B0A74121A
:100430002AFAE43BFB7B00907FD5EAF0804374040A
:10044000252FF582E43530F583E0FABA0002800307
:10045000BA0120907FB47402F07AA87B0A8B027BE9
:1004600000907FD4EAF07AA87B0A7B00907FD5EADF
:10047000F0800E907FB47403F08006907FB4740314
:10048000F022C0E0C0F0C082C083C002C003C0043C
:10049000C005C006C007C000C001C0D075D0085359
:1004A00091EF907FABE0FA20E00302095A907FAB16
:1004B0007401F07401252FF582E43530F583E0FAFC
:1004C000BA00028032BA01028063BA020302064314
:1004D000BA03030206A1BA06030207B9BA08030267
:1004E00007C5BA09030207EEBA0A0302081BBA0BD2
:1004F000030208C5020954852F82853083E0FABAC9
:1005000080028008BA81028003BA8218907F00E4DA
:10051000F0907F01F0907FB57402F0907FB4740288
:10052000F002095A907FB47403F002095A852F82B1
:10053000853083E0FABA00028013BA01028017BA4C
:100540000202801BBAA1030205E002063A907FB4C2
:100550007402F002095A907FB47402F002095A74CE
:1005600004252FF582E43530F583E0FABA000280E5
:100570000FBA8002801BBA81028028BA8259803D5E
:10058000907FD7E4F07420F0907FB47402F00209F9
:100590005A907FD77410F07430F0907FB47402F0EA
:1005A00002095A907FB6E0FA54FEF0907FD774119A
:1005B000F07431F0907FB47402F002095A907FB861
:1005C000E0FA54FEF0907FD77412F07432F0907F0E
:1005D000B47402F002095A907FB47403F002095A0D
:1005E0007404252FF582E43530F583E0FABA000271
:1005F0008005BA013C801D907F00E521F0907F01CD
:10060000E522F0C200907FB57402F0907FB47402CE
:10061000F002095A907F00E523F0907F01E524F075
:10062000C201907FB57402F0907FB47402F00209A9
:100630005A907FB47403F002095A907FB47403F0A7
:1006400002095A852F82853083E0FABAA14A7404E0
:10065000252FF582E43530F583E0FABA00028005F3
:10066000BA012C8015907F00E531F0907FB57401C0
:10067000F0907FB47402F002095A907F00E533F0E5
:10068000907FB57401F0907FB47402F002095A9023
:100690007FB47403F002095A907FB47403F0020926
:1006A0005A852F82853083E0FABA00028013BA019E
:1006B000028017BA0202801BBAA10302077D02075B
:1006C000B0907FB47402F002095A907FB47402F0C3
:1006D00002095A7404252FF582E43530F583E0FAD7
:1006E000BA00028013BA8002802EBA81028045BA15
:1006F0008203020754020774907FB4E0FA4401F0C9
:10070000907FD7E4F07420F0907FC5E4F0907FB440
:10071000E0FA4402F002095A907FB4E0FA4401F092
:10072000907FD77410F07430F0907FB4E0FA4402F8
:10073000F002095A907FB67401F0907FD77411F0DF
:100740007431F0907FB6E0FA4402F0907FB4740206
:10075000F002095A907FB87401F0907FD77412F0BC
:100760007432F0907FB8E0FA4402F0907FB47402E3
:10077000F002095A907FB47403F002095A740425F8
:100780002FF582E43530F583E0FABA00028003BA2F
:100790000115907F007401F0907FB57401F0907F97
:1007A000B47402F002095A907FB47403F002095A3B
:1007B000907FB47403F002095A75D00012032175BA
:1007C000D00802095A852F82853083E0FABA801555
:1007D000907F007401F0907FB57401F0907FB47445
:1007E00002F002095A907FB47403F002095A852F6F
:1007F00082853083E0FABA00028005BA21148009AC
:10080000907FB47402F002095A907FB47403F0022E
:10081000095A907FB47403F002095A852F828530FB
:1008200083E0FABA2102801CBA810280030208BC6C
:10083000907F00E4F0907FB57401F0907FB4740273
:10084000F002095A7404252FF582E43530F583E06F
:10085000FABA00028005BA015A802C7403252FF5DC
:1008600082E43530F583E0FA6012C2047403252F68
:10087000F582E43530F583E0F5318002D204907FD3
:10088000B47402F002095A7403252FF582E435305E
:10089000F583E0FA6012C2057403252FF582E43572
:1008A00030F583E0F5338002D205907FB47402F016
:1008B00002095A907FB47403F002095A907FB4740D
:1008C00003F002095A852F82853083E0FABA0102CB
:1008D0008009BA210302094402094C7402252FF54C
:1008E00082E43530F583E0FABA00517404252FF51F
:1008F00082E43530F583E0FABA00028005BA0134AB
:100900008019907FD77411F07431F0907FB6E0FABF
:100910004402F0907FB47402F0803F907FD774124D
:10092000F07432F0907FB8E0FA4402F0907FB47433
:1009300002F08026907FB47403F0801E907FB47420
:1009400003F08016907FB47402F0800E907FB47430
:1009500003F08006907FB47403F0907FA9E0FA3032
:10096000E006907FA97401F0907FAAE0FA30E00BD6
:10097000907FAA7401F0907FC5E4F0907FABE0FA1D
:1009800030E40F907FAB7410F075D00012028075C8
:10099000D008907FABE0FA30E309907FAB7408F0A9
:1009A000438701907FA9E0FA30E108907FA97402A3
:1009B000F0C202907FA9E0FA30E208907FA97404A7
:1009C000F0C203907FABE0FA30E10F907FAB74028E
:1009D000F075D00012029475D008D0D0D001D000AC
:1009E000D007D006D005D004D003D002D083D08267
:1009F000D0F0D0E032C0E0C0F0C082C083C0D0757B
:100A0000D01053D8EFD0D0D083D082D0F0D0E03205
:100A1000C2AF907FAFE4F0907FAB74FFF0907FAEF9
:100A2000741BF0907FA97407F0907FAC7407F0906E
:100A30007FAA7401F0907FAD7401F0907FB6E4F06E
:100A4000907FB8F0907FDE7407F0907FDF7401F044
:100A5000D2E853D8EF43D820D2AF221201100100C0
:100A6000000040CD0605C000010102000109023B63
:100A700000020100803209040000010300000309A4
:100A800021000100012236000705810302000A0946
:100A900004010001030000030921000100012236C6
:100AA000000705820302000A05010905A1010901E9
:100AB000A1000930093115FF250195027502810257
:100AC000C095047501810305091901290815002540
:100AD00001950875018102C0040300002203410052
:100AE00043004D0045002000550053004200200007
:100AF00077006900640067006500740073001A03E2
:100B000053004E0045005300200050006100640077
:100B100020004800490044007E0353004E00450079
:100B2000530020005000610064002000480049008C
:100B300044002000440072006900760065007200E5
:100B40002C0020004600690072006D0077006100F3
:100B500072006500200043006F0070007900720091
:100B60006900670068007400200028006300290005
:100B700020003200300030003400200041007200BC
:100B80006E0069006D0020004C006100650075007A
:100B9000670065007200D80ADC0AFE0A180BC0E084
:100BA000E5F06011146019146007146018141460E3
:100BB00004D0E08019D0E0C000A882F6D000800EFA
:100BC000D0E0F08009D0E0C000A882F2D00022E599
:100BD000F060111460171460171460171414600487
:100BE00074FF8016C000A882E6D000800DE0800A65
:0B0BF000938007C000A882E2D0002222
:00000001FF
