:04000000020049327F
:01000B0032C2
:0100130032BA
:01001B0032B2
:0300230002066F63
:03002B000207A326
:01003300329A
:01003B003292
:030043000201EFC8
:2000A2007EAF7F098E308F317EB37F098E328F337ED57F098E348F357EF77F098E368F37E8
:0900C2007538E875397F0200462B
:030046000208FBB2
:2000CB00752DFFC200C201C202752E7DC20322853882853983A3A3A3E0FFBF01028019BFC2
:2000EB000202802DBF03028041BF2103020182BF22030201B80201E8907FB47402F07E3CEA
:20010B007F09907FD4EFF07E3C7F09907FD5EEF022907FB47402F07E4E7F09907FD4EFF025
:20012B007E4E7F09907FD5EEF022853882853983A3A3E0FFBF04005037907FB47402F085DF
:20014B003882853983A3A3E025E02430F9870E09870F907FD4EFF0853882853983A3A3E085
:20016B0025E02430F9870E09870F907FD5EEF022907FB47403F02274042538FEE43539FF9A
:20018B008E828F83E0701F907FB47402F07E4E7F0974122EE43F907FD4F07E4E7F09907F39
:2001AB00D574122EF022907FB47403F02274042538FEE43539FF8E828F83E07019907FB4DB
:2001CB007402F07E707F09907FD4EFF07E707F09907FD5EEF022907FB47403F022907FB40D
:2001EB007403F022C2AFC021C0E0C0F0C082C083C007C006C005C004C003C002C001C00028
:20020B00C0D075D0085391EF907FABE0FF20E0030205D8907FAB7401F0853882853983A366
:20022B00E0FF24F450030205D2EF240A83F582EF241083F583E4735A8E6CADD2D2A0D2A647
:20024B00CCF766020203030505040504040405853882853983E0FFBF80028008BF81028052
:20026B0003BF8216907F00E4F0907F01F0907FB57402F0907FB4F00205D8907FB47403F050
:20028B000205D8853882853983E0FF6013BF01028017BF0202801BBFA103020323020363F8
:2002AB00907FB47402F00205D8907FB47402F00205D8853882853983A3A3A3A3E0FF6012C6
:2002CB00BF8002801DBF8102802ABF820280400205D8907FD7E4F07420F0907FB4C4F002B0
:2002EB0005D8907FD77410F07430F0907FB47402F00205D8907FB6E0FF74FE5FF0907FD7D5
:20030B007411F07431F0907FB47402F00205D8907FB47403F00205D874042538FEE4353992
:20032B00FF8E828F83E070277F078F0E1FEE600E8F8275837FEF2425F9E7FEF080ECC200C0
:20034B00907FB57408F0907FB47402F00205D8907FB47403F00205D8907FB47403F0020520
:20036B00D8853882853983E0FFBFA12D74042538FEE43539FF8E828F83E07014907F00E510
:20038B002EF0907FB57401F0907FB404F00205D8907FB47403F00205D8907FB47403F00240
:2003AB0005D8853882853983E0FF6013BF01028017BF0202801BBFA10302046C02049790CA
:2003CB007FB47402F00205D8907FB47402F00205D8853882853983A3A3A3A3E0FF600FBF79
:2003EB008002802CBF81028045BF826C8061907FB4E0FF74014FF0907FD7E4F07420F0900B
:20040B007FC5E4F0907FB4E0FF74024FF00205D8907FB4E0FF74014FF0907FD77410F0745F
:20042B0030F0907FB4E0FF74024FF00205D8907FB67401F0907FD77411F07431F0907FB67C
:20044B00E0FF74024FF0907FB47402F00205D8907FB47403F00205D8907FB47403F00205BB
:20046B00D874042538FEE43539FF8E828F83E07012907F007401F0907FB5F0907FB404F012
:20048B000205D8907FB47403F00205D8907FB47403F00205D81200DA0205D8853882853998
:2004AB0083E0FFBF8012907F007401F0907FB5F0907FB404F00205D8907FB47403F002058F
:2004CB00D8853882853983E0FF6005BF21158009907FB47402F00205D8D201907FC5E4F074
:2004EB000205D8907FB47403F00205D8853882853983E0FFBF21028015BF8156907F00E4AA
:20050B00F0907FB504F0907FB404F00205D874042538FEE43539FF8E828F83E0702B74035A
:20052B002538FEE43539FF8E828F83E06010C202853882853983A3A3A3E0F52E8002D2020C
:20054B00907FB47402F00205D8907FB47403F00205D8907FB47403F00205D8853882853979
:20056B0083E0FFBF01028005BF2154804A74022538FEE43539FF8E828F83E0703274042566
:20058B0038FEE43539FF8E828F83E0701A907FB6E0FF74024FF0907FD77411F07431F09064
:2005AB007FB47402F08026907FB47403F0801E907FB47403F08016907FB47402F0800E9022
:2005CB007FB47403F08006907FB47403F0907FA9E0FF30E006907FA97401F0907FA9E0FF65
:2005EB0030E108907FA97402F0C203907FAAE0FF30E03B907FAA7401F030012D907EC0E0E7
:20060B00FF75990E74025F25E025E0FE74045F420E74085F0303543FFD420E74015F4EF5D8
:20062B002DC201907FB47402F0907FC5E4F0907FABE0FF30E40F907FAB7410F075D00012AD
:20064B0000CB75D008D0D0D000D001D002D003D004D005D006D007D083D082D0F0D0E0D056
:20066B0021D2AF32C2AFC0E0C082C083C0D075D01020980302078DAF99C298BF7F02801459
:20068B00BFFE028009BFFF217523FF02078D7524FF02078D7E088E151EED6008EE2425F802
:2006AB00760080F2D20002078DC204747F5FFEBE0D02803CBE1302802BBE31028046BE4805
:2006CB00028035BE4C028014BE63028013BE6E02801ABE78028011BE7A3680187E01803438
:2006EB007E0280307E04802C7E0880287E2080247E4080207E80801C7E0474805F4409FF08
:20070B00D20480107E0474805F440BFFD20480047E00D204EE6016EF30E70BEEF4FD5525C9
:20072B00F525D2008007EE4525F525D200300452EF30E72653177FEF900A7D93FF7E07EE51
:20074B0024FE5012EE2425F9E7FDB51706EE2425F876001E80E9D200802853177FEF900A0C
:20076B007D93FF7E027D02BD08005014ED2425F9E77008EE2425F8A61780050D8D1680E721
:20078B00D2001099028006852D99752DFFD0D0D083D082D0E0D2AF32C2AFC0E0C082C08321
:2007AB00C0D075D01810CF0280407F00200208D52F057F01852E2F3000077F01C200852E60
:2007CB002FEF60262003237F088F1E1FEE6013EF2480F582E4347EF583EF2425F9E7FEF052
:2007EB0080E7D203907FB77408F0D0D0D083D082D0E0D2AF32C2AF907FAFE4F0907FAB1407
:20080B00F0907FAE7411F0907FA97407F0907FAC7401F0E0FF74024FF0907FAA7401F09026
:20082B007FADF0907FB6E4F0907FC6F0907FB8F0907FC8F0907FDE7403F0907FDF7401F00E
:20084B00D2E8D2AF22907F97E4F0907F9D7402F0907F98E4F0907F9E7484F0907F95740379
:20086B00F0907F9404F0758920538EEF758DCC75870075985075C800D2ACD28E22752400FB
:20088B007F088F061FEE6014EF2480F582E4347EF583E4F0EF2425F8760080E67523FE75AD
:2008AB0099018523227523007404B5220E7524FE75990FE52430E50375220522852E2F75EA
:2008CB00C80075CDC175CBC175CC8075CA80D2ADC2CFD2CA227F02EF14FEFF70FA907FD623
:2008EB00E0FF74FB5FF0E0FF74084FF0758200227E007F408E048F051EBEFF011FC3E49CFC
:20090B0074808DF063F08095F040E91200CB1208001208501208881208C7907FD6E0FF74BE
:20092B00024FF0E0FF74F75FF0E0FF74044FF080FE1201000100000040CD0601C05501017F
:20094B00020001090222000101008064090400000103010103092100012101223F000705A6
:20096B00810308000A05010906A101050719E029E7150025017501950881029501750881A5
:20098B000195057501050819012905910295017503910195067508150025650507190029AE
:2009AB00658100C0040300002203410043004D0045002000750073006200200057006900FA
:2009CB00640067006500740073002203530075006E0020006B006500790062006F006100FF
:2009EB007200640020004800490044008603530075006E0020004B006500790062006F0048
:200A0B00610072006400200048004900440020004400720069007600650072002C002000C7
:200A2B004600690072006D007700610072006500200043006F007000790072006900670071
:200A4B00680074002000280063002900200032003000300032002000410072006E0069004D
:200A6B006D0020004C0061006500750067006500720000788179803A3B433C443D453EE44B
:200A8B003F00404142E25248464750747A514F291E1F20212223242526272D2E352A4900DD
:200AAB0054550000637C4A2B141A0815171C180C12132F304C655F606156007D4DFFE00434
:200ACB001607090A0B0D0E0F33343128585C5D5E627E4B7B53E11D1B06190511103637387B
:120AEB00E500595A5BFFFFFF7539E32CE74EFF570000C1
:06007800E478FFF6D8FD5C
:200056007900E94400601B7A00900AFD780175A000E493F2A308B8000205A0D9F4DAF27549
:02007600A0FFE9
:20007E007800E84400600A790175A000E4F309D8FC7800E84400600C7900900001E4F0A380
:04009E00D8FCD9FAB7
:0D0049007581391208E0E58260030200466F
:00000001FF
