:04000000020AEA32D4
:01000B0032C2
:0100130032BA
:01001B0032B2
:0100230032AA
:03002B000201A926
:0300330002093788
:01003B003292
:030043000204C6EE
:100AEA0075812C120293E58260030200467900E9BF
:100AFA004400601B7A00900B38780075A000E493DC
:100B0A00F2A308B8000205A0D9F4DAF275A0FF78BA
:100B1A0000E84400600C7900900000E4F0A3D8FCDF
:050B2A00D9FAF6D8FD28
:030B350002004675
:100046001202A380FE7A007B07C3E49B502B8A042E
:100056007D00EDCC25E0CC33FD8C02907F9BE0FC4F
:1000660020E4F8907F9BE0FC20E503430201907FAB
:100076009BE0FC30E4F81B80D0907F9BE0FB20E403
:10008600F8907F9BE0FB30E503430280907F9BE086
:10009600FB30E4F8758A56758CFF907F9EE0FB4432
:1000A60020F0D28CBA7803020196BAF903020196BF
:1000B600BAFA03020196BAFB03020196BAFC0302DE
:1000C6000196BAFD03020196BAFE03020196BAFF33
:1000D60003020196C204747F5AFBBB60028032BBE6
:1000E60061028039BB62028019BB6302801FBB6458
:1000F600028022BB65028029BB6602801CBB672981
:100106008023430280D2027B00D20480207B0180C0
:100116001C7B0280187B0480147B0880107B208067
:100126000C7B4080087B8080047B00D204EB601649
:10013600EA30E709EB4521F521D2008009EBF4FB13
:100146005521F521D200300447EA30E72453027FD7
:10015600EA9002E393FA7B02BB08005010EB2421DD
:10016600F88604EC7004A60280030B80EBD20080B4
:100176001FEA9002E393FA7B07C374019B500FEBCF
:100186002421F88604ECB5020276001B80EBD2002F
:10019600308DFD907F9EE0FA54DFF0C28CC28D0256
:1001A600004B22C0E0C0F0C082C083C0D075D0181A
:1001B600D310AF01C3C0D010CF02806CC2051003AC
:1001C60002801A7A088A1B1AC374029B500DEA240D
:1001D60021F8861BBB39EE760080EAD20520010D98
:1001E600152AE52A60028005D20585292A30000EE7
:1001F600D205C20085292A1002028002D2033005E8
:10020600272007247A088A1B1AEB6014EA2480F553
:1002160082E4347EF583EA2421F8861BEBF080E63F
:10022600D207907FB77408F0D0D092AFD0D0D083E9
:10023600D082D0F0D0E032C200C20175297DC20260
:10024600C2032285292A75C80075CDC175CBC17533
:10025600CC8075CA80D2ADC2CFD2CA22907F9EE032
:10026600FA54EFF0907F9EE0FA54DFF0907F98E02A
:10027600FA54DFF07A07EA2421F876008A031AEBAB
:1002860070F422C28CC28DC2A975890122907FD6D4
:10029600E054FBF0E0FA4408F0758200227A007B15
:1002A600408A048B051ABAFF011BC3E49C74808D37
:1002B600F063F08095F040E91203631209521202CE
:1002C60062120249120289907FD6E04402F0E0549D
:1002D600F7F0E0FA4404F012004B80FE22351E1FB0
:1002E60020212223242526272D2E310062141A08C8
:1002F60015171C180C12132F3000595A5B041607D9
:10030600090A0B0D0E0F333432005C5D5E001D1BB7
:10031600061905111036373800635F60612C2A2BE9
:100326005828294C000000560052514F503A3B3C89
:100336003D3E3F404142432F3054555775000039EA
:1003460000000000000000000000000000000000A7
:0D035600000000000000000000000000009A
:060B2F00752BE8752C7F18
:1003630012023DC206C207227403252BF582E4352F
:100373002CF583E0FABA01028019BA02028035BA79
:1003830003028051BA2103020459BA2203020487EB
:100393000204BF907FB47402F07A997B098B027BCD
:1003A30000907FD4EAF07A997B097B00907FD5EAAD
:1003B300F00204C5907FB47402F07AAB7B098B0220
:1003C3007B00907FD4EAF07AAB7B097B00907FD5EA
:1003D300EAF00204C57402252BF582E4352CF5837B
:1003E300E0FABA04005067907FB47402F0740225F7
:1003F3002BF582E4352CF583E0FA7B00EBCA25E08C
:10040300CA33FBEA24E2F582EB340AF583E493FA78
:10041300740193FB8B027B00907FD4EAF074022576
:100423002BF582E4352CF583E0FA7B00EBCA25E05B
:10043300CA33FBEA24E2F582EB340AF583E493FA48
:10044300740193FB7B00907FD5EAF00204C5907F93
:10045300B47403F0806C907FB47402F07AAB7B09C0
:1004630074122AFAE43BFB8B027B00907FD4EAF000
:100473007AAB7B0974122AFAE43BFB7B00907FD5AD
:10048300EAF0803E7404252BF582E4352CF583E0F5
:10049300FABA0020907FB47402F07ACD7B098B0204
:1004A3007B00907FD4EAF07ACD7B097B00907FD5E7
:1004B300EAF0800E907FB47403F08006907FB474EA
:1004C30003F022C0E0C0F0C082C083C002C003C0FA
:1004D30004C005C006C007C000C001C0D075D00865
:1004E3005391EF907FABE0FA20E0030208C1907FC5
:1004F300AB7401F07401252BF582E4352CF583E010
:10050300FABA00028032BA01028063BA0203020619
:100513004FBA0303020691BA060302077BBA080324
:10052300020787BA09030207B0BA0A030207DEBA51
:100533000B030208500208BB852B82852C83E0FA4B
:10054300BA80028008BA81028003BA8218907F00C1
:10055300E4F0907F01F0907FB57402F0907FB47463
:1005630002F00208C1907FB47403F00208C1852B26
:1005730082852C83E0FABA00028013BA0102801745
:10058300BA0202801BBAA103020605020646907F47
:10059300B47402F00208C1907FB47402F00208C17F
:1005A3007404252BF582E4352CF583E0FABA0002B6
:1005B300800ABA80028016BA813F8023907FD7E4F5
:1005C300F07420F0907FB47402F00208C1907FD7DA
:1005D3007410F07430F0907FB47402F00208C1908C
:1005E3007FB6E0FA54FEF0907FD77411F07431F0C7
:1005F300907FB47402F00208C1907FB47403F002D8
:1006030008C17404252BF582E4352CF583E0FABA8E
:1006130000287A078A0B1AEB600F8A8275837FEAB8
:100623002421F8860BEBF080EBC200907FB57408B1
:10063300F0907FB47402F00208C1907FB47403F0A9
:100643000208C1907FB47403F00208C1852B828530
:100653002C83E0FABAA12E7404252BF582E4352C01
:10066300F583E0FABA0015907F00E529F0907FB595
:100673007401F0907FB47402F00208C1907FB474E7
:1006830003F00208C1907FB47403F00208C1852B04
:1006930082852C83E0FABA00028013BA0102801724
:1006A300BA0202801BBAA103020744020772907FB9
:1006B300B47402F00208C1907FB47402F00208C15E
:1006C3007404252BF582E4352CF583E0FABA000295
:1006D300800ABA80028025BA815E803C907FB4E0B4
:1006E300FA4401F0907FD7E4F07420F0907FC5E4E2
:1006F300F0907FB4E0FA4402F00208C1907FB4E0C6
:10070300FA4401F0907FD77410F07430F0907FB406
:10071300E0FA4402F00208C1907FB67401F0907FC2
:10072300D77411F07431F0907FB6E0FA4402F09080
:100733007FB47402F00208C1907FB47403F002081E
:10074300C17404252BF582E4352CF583E0FABA0055
:1007530015907F007401F0907FB57401F0907FB421
:100763007402F00208C1907FB47403F00208C190D0
:100773007FB47403F00208C175D00012036B75D007
:10078300080208C1852B82852C83E0FABA80159074
:100793007F007401F0907FB57401F0907FB4740210
:1007A300F00208C1907FB47403F00208C1852B8264
:1007B300852C83E0FABA00028005BA2115800990DE
:1007C3007FB47402F00208C1D206907FC5E4F00240
:1007D30008C1907FB47403F00208C1852B82852C75
:1007E30083E0FABA21028017BA8159907F00E4F0BE
:1007F300907FB57401F0907FB47402F00208C17465
:1008030004252BF582E4352CF583E0FABA002C7429
:1008130003252BF582E4352CF583E0FA6012C2013F
:100823007403252BF582E4352CF583E0F52980024A
:10083300D201907FB47402F00208C1907FB47403B4
:10084300F00208C1907FB47403F00208C1852B82C3
:10085300852C83E0FABA01028005BA2153804974DA
:1008630002252BF582E4352CF583E0FABA003174C6
:1008730004252BF582E4352CF583E0FABA001990B0
:100883007FD77411F07431F0907FB6E0FA4402F030
:10089300907FB47402F08026907FB47403F0801EBE
:1008A300907FB47403F08016907FB47402F0800ECE
:1008B300907FB47403F08006907FB47403F0907F4C
:1008C300A9E0FA30E006907FA97401F0907FAAE0D6
:1008D300FA30E016907FAA7401F0100602800690A9
:1008E3007FB47402F0907FC5E4F0907FABE0FA3000
:1008F300E406907FAB7410F0907FABE0FA30E3092D
:10090300907FAB7408F0438701907FA9E0FA30E150
:1009130008907FA97402F0C207D0D0D001D000D0D4
:1009230007D006D005D004D003D002D083D082D024
:10093300F0D0E032C0E0C0F0C082C083C0D075D038
:100943001053D8EFD0D0D083D082D0F0D0E032C2D1
:10095300AF907FAFE4F0907FAB74FFF0907FAE7405
:1009630019F0907FA97403F0907FAC7403F0907F2B
:10097300AA7401F0907FAD7401F0907FB6E4F0901B
:100983007FDE7403F0907FDF7401F0D2E853D8EF79
:1009930043D820D2AF221201100100000040CD063F
:1009A30004C00001010200010902220001010080CC
:1009B300320904000001030101030921000121019F
:1009C300223F000705810308000A05010906A1016A
:1009D300050719E029E7150025017501950881022E
:1009E300950175088101950575010508190129050A
:1009F300910295017503910195067508150025650A
:100A03000507190029658100C00403000022034182
:100A13000043004D004500200055005300420020D4
:100A230000770069006400670065007400730026A6
:100A33000341006D0069006700610020006B0065E1
:100A430000790062006F00610072006400200048BA
:100A530000490044008A0341006D0069006700619A
:100A63000020004B006500790062006F0061007296
:100A73000064002000480049004400200044007244
:100A83000069007600650072002C002000460069B2
:100A93000072006D00770061007200650020004362
:100AA300006F0070007900720069006700680074CD
:100AB30000200028006300290020003200300030AD
:100AC3000033002000410072006E0069006D0020B9
:100AD300004C006100650075006700650072000C42
:070AE3000A100A320A580A4A
:00000001FF
